:020000040800F2
:10C8000000800020CD5901085D54010861540108E1
:10C81000695401086D5401087154010800000000BA
:10C820000000000000000000000000007554010836
:10C8300079540108000000007D540108815401086A
:10C840001D5A01081D5A01081D5A01081D5A0108E8
:10C850001D5A01081D5A01081D5A01081D5A0108D8
:10C860001D5A01081D5A01081D5A01081D5A0108C8
:10C870001D5A01081D5A01081D5A01081D5A0108B8
:10C880001D5A0108000000001D5A01081D5A010828
:10C890008D5401081D5A01081D5A010885540108CC
:10C8A0001D5A01081D5A01081D5A01081D5A010888
:10C8B00099540108A55401081D5A01081D5A010880
:10C8C0001D5A01081D5A01081D5A01081D5A010868
:10C8D0001D5A01081D5A01081D5A01081D5A010858
:10C8E0001D5A01081D5A01081D5A01081D5A010848
:10C8F0001D5A01081D5A01081D5A010800000000B8
:10C90000000000001D5A0108000000001D5A010827
:10C910001D5A0108000000001D5A0108B154010809
:10C920001D5A01081D5A01081D5A01081D5A010807
:10C930001D5A010800000000000000001D5A0108F7
:10C940001D5A01081D5A01080000000000000000E7
:10C9500000000000000000000000000000000000D7
:10C960000000000000000000000000001D5A010847
:10C970001D5A010800000000000000000000000037
:10C98000000000001D5A0108000000000000000027
:10C990000000000000000000000000000000000097
:10C9A00000000000000000001D5A01081D5A010887
:10C9B0001D5A01081D5A01081D5A010800000000F7
:10C9C000000000001D5A01080000000000000000E7
:08C9D0001D5A01081D5A01085F
:10C9E00010B5054C237833B9044B13B10448AFF3A9
:10C9F00000800123237010BD2806002000000000E5
:10CA0000D86B010808B5034B1BB103490348AFF3CA
:10CA1000008008BD000000002C060020D86B010833
:10CA200010F8012B11F8013B012A28BF9A42F7D0D8
:10CA3000D01A7047034613F8012B002AFBD1181AAD
:10CA400001387047000000000000000000000000F6
:10CA500001F0FF01102A2BDB10F0070F08D010F8AF
:10CA6000013B013A8B422DD010F0070F42B3F6D1B3
:10CA7000F0B441EA012141EA014122F007047FF0CC
:10CA800000070023F0E80256083C85EA010586EA23
:10CA9000010685FA47F5A3FA87F586FA47F6A5FA5F
:10CAA00087F68EB9EED1F0BC01F0FF0102F007026B
:10CAB00032B110F8013B013A83EA010313B1F8D116
:10CAC0000020704701387047002D06BF35460338F7
:10CAD000073815F0010F07D1013015F4807F02BF30
:10CAE000013015F4C03F0130F0BC0138704700BF81
:10CAF00081F0004102E000BF83F0004330B54FEA0F
:10CB000041044FEA430594EA050F08BF90EA020F7B
:10CB10001FBF54EA000C55EA020C7FEA645C7FEA0E
:10CB2000655C00F0E2804FEA5454D4EB5555B8BF31
:10CB30006D420CDD2C4480EA020281EA030382EAA2
:10CB4000000083EA010180EA020281EA0303362D34
:10CB500088BF30BD11F0004F4FEA01314FF4801C07
:10CB60004CEA113102D0404261EB410113F0004F19
:10CB70004FEA03334CEA133302D0524263EB4303D0
:10CB800094EA050F00F0A780A4F10104D5F1200E6E
:10CB90000DDB02FA0EFC22FA05F2801841F10001C9
:10CBA00003FA0EF2801843FA05F359410EE0A5F19D
:10CBB00020050EF1200E012A03FA0EFC28BF4CF0CE
:10CBC000020C43FA05F3C01851EBE37101F0004584
:10CBD00007D54FF0000EDCF1000C7EEB00006EEB91
:10CBE0000101B1F5801F1BD3B1F5001F0CD349081B
:10CBF0005FEA30004FEA3C0C04F101044FEA445272
:10CC000012F5800F80F09A80BCF1004F08BF5FEAF8
:10CC1000500C50F1000041EB045141EA050130BDD8
:10CC20005FEA4C0C404141EB0101013C28BFB1F5EA
:10CC3000801FE9D291F0000F04BF01460020B1FA35
:10CC400081F308BF2033A3F10B03B3F120020CDA08
:10CC50000C3208DD02F1140CC2F10C0201FA0CF0E6
:10CC600021FA02F10CE002F11402D8BFC2F1200C4B
:10CC700001FA02F120FA0CFCDCBF41EA0C01904001
:10CC8000E41AA2BF01EB0451294330BD6FEA04044A
:10CC90001F3C1CDA0C340EDC04F11404C4F1200235
:10CCA00020FA04F001FA02F340EA030021FA04F347
:10CCB00045EA030130BDC4F10C04C4F1200220FA9E
:10CCC00002F001FA04F340EA0300294630BD21FADC
:10CCD00004F0294630BD94F0000F83F4801306BFA2
:10CCE00081F480110134013D4EE77FEA645C18BF96
:10CCF0007FEA655C29D094EA050F08BF90EA020F2D
:10CD000005D054EA000C04BF1946104630BD91EA24
:10CD1000030F1EBF0021002030BD5FEA545C05D127
:10CD20004000494128BF41F0004130BD14F5800466
:10CD30003CBF01F5801130BD01F0004545F0FE41DA
:10CD400041F470014FF0000030BD7FEA645C1ABF0F
:10CD5000194610467FEA655C1CBF0B46024650EA46
:10CD6000013406BF52EA033591EA030F41F4002172
:10CD700030BD00BF90F0000F04BF0021704730B5F8
:10CD80004FF4806404F132044FF000054FF00001CD
:10CD900050E700BF90F0000F04BF0021704730B58E
:10CDA0004FF4806404F1320410F0004548BF404263
:10CDB0004FF000013EE700BF42004FEAE2014FEAB8
:10CDC00031014FEA02701FBF12F07F4393F07F4F93
:10CDD00081F06051704732F07F4208BF704793F096
:10CDE0007F4F04BF41F40021704730B54FF46074A9
:10CDF00001F0004521F000411CE700BF50EA0102AC
:10CE000008BF704730B54FF000050AE050EA010254
:10CE100008BF704730B511F0004502D5404261EBC4
:10CE200041014FF4806404F132045FEA915C3FF405
:10CE3000D8AE4FF003025FEADC0C18BF03325FEAA2
:10CE4000DC0C18BF033202EBDC02C2F1200300FA53
:10CE500003FC20FA02F001FA03FE40EA0E0021FA78
:10CE600002F11444BDE600BF4FEA4102B2F1E043D3
:10CE700024BFB3F5001CDCF1FE5C0DD901F0004CC1
:10CE80004FEAC0024CEA5070B2F1004F40EB830011
:10CE900008BF20F00100704711F0804F21D113F13D
:10CEA0003872BCBF01F00040704741F480114FEA76
:10CEB0005252C2F11802C2F1200C10FA0CF320FAFF
:10CEC00002F018BF40F001004FEAC1234FEAD3231C
:10CED00003FA0CFC40EA0C0023FA02F34FEA430386
:10CEE000CCE77FEA625307D150EA01331EBF4FF00F
:10CEF000FE4040F44000704701F0004040F0FE402A
:10CF000040F40000704700BF70B58CB0184D00248D
:10CF10000194AB6C43F48053AB64AB6CADF8104040
:10CF200003F480530293134B03930646032303A891
:10CF3000CDE90844029A0B9301F00CFA30B1AB6CC6
:10CF4000204623F48053AB640CB070BD0A49B2088C
:10CF500003A801F059FA034603A8019301F03AFA35
:10CF6000AB6C23F48053AB6401980CB070BD00BF70
:10CF7000001002400030024000C8000810B582B026
:10CF80000446019101F068FB0B49019A4FF40040FF
:10CF9000002308612146184601F0A8FA20B902B022
:10CFA000BDE8104001F06CBB07F094FE02B0BDE894
:10CFB000104001F065BB00BF0020024003680B6019
:10CFC000704700BF2DE9F04F85B0824608460D46F8
:10CFD000CDF808A0FFF72EFDC0F3C4030133C6B29D
:10CFE00003932F464FF0010800245BE000F094808B
:10CFF0004FF0FF0A4FF0000915F8013B002B5BD002
:10D00000631C9E425ADC01D04AF47F4A2B78C34607
:10D010006BB3A31CB34257DB01D04AF47F0A6B7891
:10D020002BB3E31C9E4253DC01D04AF07F4AAB781D
:10D03000EBB1231D9E424FDC01D049F0FF09EB7894
:10D04000ABB1631DB3424BDB01D049F47F492B796F
:10D050006BB1A31D9E4247DC01D049F47F096B7977
:10D060002BB1E31D9E4243DC01D049F07F49029B76
:10D070001919019101F0F0FA294B01994FF400427E
:10D080001A61002052464B4601F030FAA0BB01F075
:10D09000F7FA039B9B4504F1080408F1010807F126
:10D0A000080736DAA642A1DD15F8013B97F800A083
:10D0B0004FF00009002BA3D1C346D8E77B784FF08F
:10D0C00000094AEA032AA1E7BB784AEA034AA6E72D
:10D0D000FB784AEA036AAAE73B7943EA0909AEE723
:10D0E0007B7949EA0329B2E7BB7949EA0349B6E704
:10D0F000FB7949EA0369BAE707F0ECFD01F0C0FAF1
:10D10000039B9B4504F1080408F1010807F1080797
:10D11000C8DB05B0BDE8F08F4FF0000AD1466BE7E1
:10D120000020024010B54B1E00F12004C1F1010C9B
:10D1300003E0A04203F8012F09D002780CEB030EA4
:10D140000130002AF5D1002301F80E3010BD03781C
:10D15000002BFBD14FF0200EF5E700BF00000000D0
:10D160002DE9F04F2DED028B171E85B02ADD9FEDC6
:10D170001E8BDFF87CB08046894600244FF4004ABD
:10D180003D1B082DA8BF082509EB04012A4602A86B
:10D190008DED028B08F0EBFEDDE9022304EB0806BF
:10D1A000CDE9002301F058FADDE900233146CBF840
:10D1B00010A0002001F09AF92C4440B901F060FA67
:10D1C000A742DDDC05B0BDEC028BBDE8F08F07F0B7
:10D1D00081FD01F055FAA742D2DC05B0BDEC028B0F
:10D1E000BDE8F08FAFF30080FFFFFFFFFFFFFFFF01
:10D1F000002002400139002306E013F800C001F8C6
:10D2000001CF0133202B01D09342F6DB704700BFE2
:10D2100010B500F17840C00A9FED117B01F1784113
:10D2200086B0C0EBD12101310024CDE904018DEDA0
:10D23000027B019401F010FA0B4B4FF400421A618B
:10D2400001A902A801F052FA10B1204606B010BDA3
:10D2500001F016FA012006B010BD00BFAFF3008048
:10D26000000000000100000000200240F8B5164652
:10D2700007460D4601F0F0F99EB10837A5F1080404
:10D280007F1BC5F1080501E09E420AD9391900202B
:10D29000F4E9022301F02AF92B190028F4D0002028
:10D2A000F8BD01F0EDF90120F8BD00BF014B187881
:10D2B000704700BF45060020014B1870704700BF43
:10D2C00045060020014B1870704700BF460600203D
:10D2D00038B5012204460E214FF0904001F0BCFB0E
:10D2E0002F4B1B78042B56D8DFE803F0030F1A29C5
:10D2F00008002C4D012300202B7038BD294D2878C3
:10D3000000283ED101232B7038BD264D0022042178
:10D310004FF0904001F0A0FB002301202B7038BD9E
:10D3200024BB214B1F4D1B782246B3B14FF09040D8
:10D330000E2101F091FB287880F00103DCE7194D04
:10D3400028780028DED04FF0904000220C2101F018
:10D3500083FB287880F00103CEE74FF09040022154
:10D3600001F07AFB287880F00103C5E70D4D4FF0FE
:10D3700090400022062101F06FFB287880F0010325
:10D38000BAE74FF090400022082101F065FB2878B1
:10D3900080F00103B0E7034D287880F00103ABE78C
:10D3A000450600204406002046060020014800F003
:10D3B00099BA00BF00000020034AD2E9003190680A
:10D3C000DB430B44184070470000002010B50446B2
:10D3D0002146064800F08AFA38B1054A2368054814
:10D3E0000021D154226800EB022010BD0000002073
:10D3F000480600205C0A00200A2320F8013B034A6B
:10D40000034B801A58540120704700BF5C0A00206B
:10D4100048060020124B1B780BB10120704710B555
:10D4200082B0104801A903F0FF0400F077FA18B1A8
:10D43000019B0D4AD15C11B9012002B010BD0B480F
:10D4400000EB032004F066FD0128F5D008B120466A
:10D45000F3E7044800F06EFA054B01201870ECE782
:10D460006A1F002000000020480600205C0A0020FF
:10D4700047060020014B1878704700BF4706002080
:10D48000014B00221A7070474706002000B50F4B71
:10D4900083B01B780022019213B103B05DF804FB46
:10D4A0000B4801A900F03AFA0028F6D0019B094A7E
:10D4B000D15C0029F1D0084800EB032004F02AFDDC
:10D4C0000028EAD1024800F035FAE6E76A1F00209A
:10D4D00010000020580600205C0600202DE9F041D5
:10D4E00082B007460C4600260F48019601A900F0BD
:10D4F000FDF9B0B1019DDFF838802B0221460B4CBD
:10D5000008F80560E75404EB0524601C08F0AAFC49
:10D510000A2320F8013B001B08F8050002B0BDE813
:10D52000F0810070FFDE00BF100000205C060020CC
:10D53000580600202DE9F04182B00E46002705462E
:10D5400001A911480197144600F0D0F9D0B1019813
:10D55000DFF83C8031460D4E08F80070030206EB00
:10D560000020F554013008F07DFC214600F044FA1B
:10D570000A22019B20F8012B801B08F8030002B04F
:10D58000BDE8F0810070FFDE100000205C06002086
:10D59000580600202DE9F04383B04FF000080646FE
:10D5A0000F461448CDF8048001A915461C4600F02A
:10D5B0009DF9E0B10198DFF8449039460E4F03021F
:10D5C00007F8008009EB0020013009F8036008F03B
:10D5D00049FC2A46234600F00DFB0A22019B20F855
:10D5E000012BA0EB0900F85403B0BDE8F0830070F4
:10D5F000FFDE00BF10000020580600205C0600205F
:10D60000F0B583B00027044601A90F4801971646DC
:10D610001D4600F06BF9A0B1019832462B460B4E27
:10D620000B4D3754010205EB00206C54013000F023
:10D63000E1FA0A22019B20F8012B401BF05403B0B1
:10D64000F0BD0070FFDE00BF100000205806002073
:10D650005C060020F0B583B00027044601A91348FA
:10D66000019716461D4600F041F9E0B10198324697
:10D670002B460F4E0F4D01022F5406EB0020745421
:10D68000013000F0B7FA42F22C0320F8023BDDE94A
:10D69000082300F0AFFA0A22019B20F8012B801B1F
:10D6A000E85403B0F0BD0070FFDE00BF10000020A2
:10D6B0005C060020580600202DE9F04182B00746A4
:10D6C0000C4600261048019601A900F00FF9C0B1E0
:10D6D000019DDFF83C8021462B020C4C08F80560C8
:10D6E000E75404EB052420236370A01C08F0BAFB68
:10D6F0000A2320F8013B001B08F8050002B0BDE832
:10D70000F0810070FFDE00BF100000205C060020EA
:10D7100058060020F0B583B006460C4600250E489A
:10D72000019501A900F0E2F898B101980B4F21464C
:10D730000B4C3D54020204EB0020A654013000F0D3
:10D740005BF90A22019B20F8012B001BF85403B05F
:10D75000F0BD0070FFDE00BF100000205806002062
:10D760005C0600202DE9F04182B005464FF000082C
:10D770001348CDF8048001A957EC106B00F0B6F8FF
:10D78000E0B1019C394623020E4F30460E4EFD5447
:10D7900006F80480FFF768FB07EB0424013400EE71
:10D7A000100A204600F06EFA2318019A0133DB1BA1
:10D7B000B3540A23235202B0BDE8F0810070FFDEAB
:10D7C000100000205C06002058060020F0B583B051
:10D7D00005460C4600271148019701A900F086F87C
:10D7E000D0B101980E4E29460E4D375403025E22E9
:10D7F00005EB0020EA54013008F034FB202300F848
:10D80000013B214600F0F8F80A22019B20F8012B89
:10D81000401BF05403B0F0BD0070FFDE100000208C
:10D82000580600205C0600202DE9F04182B00C462D
:10D830004FF00008074601A91148CDF804801646AC
:10D8400000F054F8C8B1019D0E4B21460E4C2A023F
:10D8500004F8058003EB05289F5408F1010008F047
:10D8600001FB314608F0FEFA0A2320F8013BA0EB49
:10D870000800605502B0BDE8F0810070FFDE00BF17
:10D88000100000205C060020580600202DE9F04121
:10D8900082B007460C4600260F48019601A900F009
:10D8A00025F8B0B1019DDFF838802B0221460B4CE2
:10D8B00008F80560E75404EB0524601C08F0D2FA70
:10D8C0000A2320F8013B001B08F8050002B0BDE860
:10D8D000F0810070FFDE00BF100000205C06002019
:10D8E0005806002003684360704700BF034610B429
:10D8F000D3E901240068821A224094420ADD421CC6
:10D900001A6008601A6899685DF8044B0A400120A3
:10D910001A60704700205DF8044B7047D0E9003270
:10D9200080689B1A0340002BC6BF01200A600020BC
:10D93000704700BFD0E900239A4205D082680133C6
:10D940001A4042600120704700207047002930B51E
:10D950000346B8BF4942274CB8BF2D2289B2B8BF91
:10D9600003F8012BA4FB0102D20802EB820CA1EB0D
:10D970004C0C0CF1300C09295FFA8CFC33D992B2B3
:10D98000A4FB0250C00800EB800EA2EB4E02303226
:10D990006329D2B225D980B2A4FB005E4FEADE0E25
:10D9A0000EEB8E05A0EB45003030B1F57A7FC0B2AA
:10D9B00015D31FFA8EFEA4FB0E54E40804EB840575
:10D9C000AEEB450E42F20F75A94284BF303403F826
:10D9D000014B0EF1300E5FFA8EFE03F801EB03F8F7
:10D9E000010B03F8012B1846002283F800C000F851
:10D9F000012F30BDCDCCCCCC00292DE9F04F034612
:10DA000003DA2D2203F8012B4942504CA4FB0102FA
:10DA1000D20802EB820CA1EB4C0C0CF1300C092962
:10DA20005FFA8CFC40F38880A4FB0250C00800EB36
:10DA30008005A2EB450230326329D2B27ADDA4FB25
:10DA4000005E4FEADE0E0EEB8E05A0EB4500303097
:10DA5000B1F57A7FC0B26BD3A4FB0E65ED0805EB80
:10DA60008506AEEB460E42F20F790EF1300E4945B7
:10DA70005FFA8EFE5AD9A4FB0576F60806EB8607F8
:10DA8000A5EB4705324F3035B942EDB24CD9B6B2AD
:10DA9000A4FB0687FF08DFF8BCA007EB8708A6EB0E
:10DAA000480808F1300851455FFA88F84CD9BFB2F0
:10DAB000A4FB07BA4FEADA0A0AEB8A0BA7EB4B077B
:10DAC000DFF894B030375945FFB225D31FFA8AFAF0
:10DAD000A4FB0A1B4FEADB0B0BEB8B01AAEB410A01
:10DAE0000AF13001B6F57A7FC9B213D31FFA8BFA67
:10DAF000A4FB0AB4E40804EB840B4E45AAEB4B0AE2
:10DB000084BF303403F8014B0AF1300A5FFA8AFA15
:10DB100003F801AB03F8011B194601F8017B0B4622
:10DB2000002403F8018B4C7003F8015B03F801EB50
:10DB300003F8010B03F8012B1846002283F800C0FC
:10DB400000F8012FBDE8F08F1946E8E7CDCCCCCC2A
:10DB50009F8601003F420F008096980001F00F025F
:10DB6000092A034694BF02F1300002F13700C1F3E5
:10DB70000312092AD87194BF02F1300002F1370074
:10DB8000C1F30322092A987194BF02F1300002F117
:10DB90003700C1F30332092A587194BF02F13000F3
:10DBA00002F13700C1F30342092A187194BF02F150
:10DBB000300002F13700C1F30352092AD87094BF34
:10DBC00002F1300002F13700C1F30362092A94BF69
:10DBD000303237329870B1F1204F5A7018464FEA00
:10DBE00011722CBF3732303200211A7000F8081F32
:10DBF000704700BF2DE9F04F87B00DF1170B204D96
:10DC000080465E464FF0CC3A0520D11841F1000124
:10DC1000A5FB014727F0030404EB9704091B541AE2
:10DC200063F100070AFB04FE05FB07EEA4FB0547B2
:10DC300004F0010CBE449146ACFB00C71CEB010C88
:10DC40001F46B9F10A0F4FEA54040CF1300C77F17A
:10DC50000007314644EACE7206F801C94FEA5E0376
:10DC6000D3D2ABEB060B5A46404608F080F94FF092
:10DC7000000308EB0B0008F80B3007B0BDE8F08F8D
:10DC8000CDCCCCCC2DE9F04FDFEDA27AB4EEE70A93
:10DC9000F1EE10FA85B0044600F3F881DFED9E7ACC
:10DCA000B4EEE70AF1EE10FA00F1FC8110EE10AAD2
:10DCB000FDEEC07ACAF3C753B5EEC00A7F3BCAF384
:10DCC000160AF1EE10FA17EE901A1BB24AF4000A87
:10DCD00000F1FB800029B8BF4942102B06464FF0E7
:10DCE000000740F3FF80C3F117030122A3F12005D1
:10DCF000C3F1200E22FA0EFC02FA05F0DFF82482AE
:10DD00009A4040EA0C004FF000099446013A02EABA
:10DD10000A02A2FB088A02FB09A202FA0EFE28FAF6
:10DD200003F343EA0E0322FA05F52B434FEA5C05A1
:10DD300045EAC07508EA050902EA500A59EA0A09E3
:10DD40004FEA500E0ED0013D4EF1FF3E45EA0C0564
:10DD50004EEA000E05EA08050EEA020E55EA0E0527
:10DD600018BF01336D4A934204D9A3F57423A3F578
:10DD7000107301316A4DA5FB0102D20802EB820C3F
:10DD8000A1EB4C0C0CF1300C09295FFA8CFC40F330
:10DD9000CF80A5FB020E4FEADE0E0EEB8E00A2EB4B
:10DDA000400230326329D2B240F36E81A5FB0E806F
:10DDB000C00800EB8008AEEB480E0EF1300EB1F556
:10DDC0007A7F5FFA8EFEC0F06B81A5FB00984FEA68
:10DDD000D80808EB8809A0EB4900303042F20F7AEE
:10DDE000C0B25145009040F24181A5FB08B94FEA0D
:10DDF000D90909EB890BA8EB4B0808F130085FFA49
:10DE000088FBDFF82481414540F24E811FFA89F0FA
:10DE1000A5FB00984FEAD80808EB8809A0EB490950
:10DE200009F130095FFA89F9CDF80490DFF8EC9038
:10DE30000290494540F23C811FFA88F8A5FB080989
:10DE40004FEAD90909EB8900A8EB400808F130082E
:10DE50005FFA88F8CDF80C80DFF8D0804145C0F03B
:10DE600042811FFA89F9A5FB0981C90801EB8108E4
:10DE70000298A9EB480909F13008B0F57A7F5FFAFA
:10DE800088F9C0F0328189B2A5FB0185ED0805EB68
:10DE900085085045A1EB480182BFB046303508F8EF
:10DEA000015B01F1300198BFB046C9B208F8011B0F
:10DEB00008F8019B039908F8011B4146019801F8F5
:10DEC000010B002588F80150EFE0002906464FF0CD
:10DED0002D02B8BF4942102B06F8012B4FF0010765
:10DEE0003FF701AFC3F111034FF0010CA3F120057F
:10DEF000C3F1200E2CFA0EF80CFA05F0402240EA8D
:10DF000008009A400CFA03FC43F609584FF0000948
:10DF1000FCE600BF0000004F000000CF3F420F00B2
:10DF2000CDCCCCCC40420F009F860100809698005B
:10DF30003146002281F800C001F8012F891B3944C5
:10DF4000002B00F08F806A4DA2F1333202FB03F008
:10DF5000B5EB700FC0F0AE80A2FB0303DB0802FB41
:10DF600003F0B5EB700FC0F0AA80A2FB0303DB083F
:10DF700002FB03F0B5EB700FC0F0A980A2FB030316
:10DF8000DB0802FB03F0B5EB700FC0F0A380A2FB2F
:10DF90000303DB0802FB03F0B5EB700FC0F09D80BC
:10DFA000A2FB0303DB0802FB03F0B5EB700FC0F02C
:10DFB0009780A2FB0303DB0803FB02F2B5EB720FB1
:10DFC00050D30F464FF0FF3C6FF00100494DA5FBC9
:10DFD00003E2D208661802EB820E0136A3EB4E0371
:10DFE0004FF02E0E04F801E03033002106F80C103B
:10DFF0003354411E002842D0A5FB0243DB0803EB4B
:10E000008304A2EB440230327254841EB9B3A5FBE0
:10E010000312D20802EB8201A3EB410330333355E4
:10E02000C31E64B3A5FB0214E40804EB8401A2EB55
:10E0300041023032F254011F0BB3A5FB0423DB086D
:10E0400003EB8302A4EB4202303272540538B1B1C3
:10E05000A5FB0325ED0805EB8505A3EB4503303350
:10E0600033543946084605B0BDE8F08F3146009874
:10E0700001F8010B01F801EB01F8012B59E73946D2
:10E08000084605B0BDE8F08F3146F5E71A4B186831
:10E090001B79206004210846237105B0BDE8F08F8C
:10E0A0003146E7E7154BF2E7314601F801BBDEE701
:10E0B000B04602E7CF1D4FF0060C052086E74FF073
:10E0C000050C0CF101070F440CF1FF307EE74FF017
:10E0D000040CF6E74FF0030CF3E74FF0020CF0E707
:10E0E0004FF0010CEDE7B046E4E6B046E0E600BFD5
:10E0F00099999919CDCCCCCCF06B0108F86B01083B
:10E1000010B4084C84460FCCCCF800002068CCF842
:10E110000410CCF80820CCF80C30CCF810005DF8D6
:10E12000044B7047006C010838B50F4B1B680BB9E6
:10E13000012038BD0D494FF47A720546B2FBF3F366
:10E140000868B0FBF3F000F0A7F804460028EFD110
:10E150000F2DEDD8024629464FF0FF3000F03EF873
:10E16000034B20461D6038BD20000020C405002060
:10E170002400002010B5032000F01EF80020FFF757
:10E18000D3FF10B10124204610BD044607F046F924
:10E19000204610BD034A0449136809680B44136004
:10E1A000704700BF5C1A002020000020014B186857
:10E1B000704700BF5C1A00200749CA6803024FF687
:10E1C000FF0003F4E0630240134343F0BF6343F4F2
:10E1D0000033CB60704700BF00ED00E01C4BDB68F4
:10E1E000C3F3022300B5C3F1070EBEF1040F03F120
:10E1F000040C28BF4FF0040EBCF1060F1BD9033BE3
:10E200004FF0FF3C0CFA03FC22EA0C024FF0FF3CFB
:10E210000CFA0EFC21EA0C019940002841EA0201A7
:10E220000CDB00F16040090100F56140C9B280F8E3
:10E2300000135DF804FB00221346E7E7054B00F0EE
:10E240000F0009010344C9B219765DF804FB00BF51
:10E2500000ED00E0FCEC00E0002807DB4109044A87
:10E2600000F01F000123834042F82130704700BFB7
:10E2700000E100E0BFF34F8F0549064BCA6802F486
:10E28000E0621343CB60BFF34F8F00BFFDE700BFD9
:10E2900000ED00E00400FA050138B0F1807F10D2F3
:10E2A00010B44FF0E023084C58614FF0F00C84F8A4
:10E2B00023C00022072110469A615DF8044B1961C2
:10E2C00070470120704700BF00ED00E02DE9F041EC
:10E2D0009708056815D08C4601EB87069CF801303D
:10E2E0009CF800809CF803409CF802E01B0443EA81
:10E2F000086323430CF1040C43EA0E2366452B60AC
:10E30000ECD112F003020BD0012A0CD0022A11D159
:10E3100001EB870311F827205B7843EA02232B8067
:10E320002868BDE8F08111F827302B70056828684F
:10E33000BDE8F08111F8272001EB87014B7843EA13
:10E3400002232B808B782B7005682868BDE8F0814C
:10E35000704700BF002836D010B5437F044603F055
:10E36000FF0263B3237902226277F3B92368174A65
:10E370005A619A6822F018029A6062798AB1226919
:10E380001A619A68616922F060020A439A609A6889
:10E39000A16922F080020A4301219A60617700207E
:10E3A00010BD4FF0FF321A61EBE7D4E902122046AC
:10E3B00000F068F808B92368DFE7012010BD027794
:10E3C000FFF7C6FFCEE70120704700BFB71DC104AD
:10E3D000704700BF38B5A0B1437F022B0446DDB2C1
:10E3E0000DD00368022242779A6842F001020025AC
:10E3F0009A605A685D60FFF7EBFF657725772846DE
:10E4000038BD0125284638BDF8B505680223437795
:10E41000AB6843F00103AB60036A022B06468C46EF
:10E42000174607D0032B22D0012B1BD00123737773
:10E430000020F8BD51080CD000230CF102003CF87C
:10E44000232030F82340013344EA02448B422C60FD
:10E45000F5D1FB0744BF3CF821302B80012328680D
:10E460007377F8BDFFF732FF01237377F8BD002AF9
:10E47000F4D0043901EB820751F8043F2B608F423E
:10E48000FAD1EBE710B41E2301E0013B15D321FACA
:10E4900003FC1CF0010FF8D0182A0FD8DFE802F0B7
:10E4A000140E0E0E0E0E0E0E1F0E0E0E0E0E0E0E75
:10E4B000220E0E0E0E0E0E0E12002AB101205DF875
:10E4C000044B7047062BF9D804686161A36823F0F8
:10E4D000180313430020A3605DF8044B70470F2B13
:10E4E000F2D9EBE7072BEFD9E8E700BF2DE9F047BA
:10E4F000DFF860919A4699F80030012B59D001233A
:10E5000080460F46164689F80030FFF74FFE504D03
:10E51000044606E0FFF74AFEA0EB040CBCF57A7F48
:10E5200041D82B69D803F5D42B694CF2FA32134049
:10E5300050D12B69D90744BF01232B610023C9F8AF
:10E540000430B8F1000F37D008F1FF33012B49D95F
:10E550003F4A5369F6B243F0010353613E70BFF383
:10E560004F8F0125FFF722FE394E044605E0FFF7E5
:10E570001DFE001BB0F57A7F2AD83369DB03F6D481
:10E5800033694CF2FA32134050D1306910F0010077
:10E5900002D001223261184635B12D4A536923EA6F
:10E5A0000503536100E00320002389F80030BDE833
:10E5B000F0870220BDE8F087254A536943F0010344
:10E5C00053613E60BFF36F8F0125C7F804A0C9E710
:10E5D0000320E1E7D9F804201A43C9F804200120F8
:10E5E0002B61E1E71A494A6942F4802233464A61C5
:10E5F000EFF3108472B647EA060252071ED1321DAD
:10E60000BA421BD006F58076FF1AD3E90001FA184A
:10E610000833B342C2E90001F7D184F31088A8F1AE
:10E620000205B5FA85F56D09AD049BE7D9F804201C
:10E630001A43C9F8042001203361ADE7BF1B06F57A
:10E6400080761A68DA5104339E42FAD1E5E700BFBA
:10E650000020024028000020064B5A69002A01DBF6
:10E66000002070470449054A99609A605869C00FB4
:10E67000704700BF0020024023016745AB89EFCD02
:10E68000044B5A6942F000425A615869C043C00FB6
:10E69000704700BF0020024070B50546FFF786FDB9
:10E6A000104E044604E0FFF781FD031BAB420FD878
:10E6B0003369DB03F7D433694CF2FA32134009D1E2
:10E6C000306910F0010002D001223261184670BD9D
:10E6D000032070BD04494A681A434A60012033612F
:10E6E00070BD00BF00200240280000202DE9F84343
:10E6F000534F3B78012B76D0814601244FF47A703A
:10E7000088463C70FFF7C8FF064620B100233B70E7
:10E710003046BDE8F8834B4B78601A6812F4007FEE
:10E720001A6864D1520540F189801A6822F4806227
:10E730001A6002233B77D9F80030012B64D04FF0E8
:10E74000FF33C8F80030D9E902532B449D4224D24C
:10E750003C4C05E0D9E9023201351344AB421CD9E7
:10E760006269EB0022F4FC7203F4FF6313436361FC
:10E77000636943F002036361636943F48033636157
:10E780004FF47A70FFF788FF636923F4FD736361C8
:10E790000028DFD0C8F8005006463B7F03F0FD029A
:10E7A000012ADBB20CD1274A116841F400611160E3
:10E7B000116821F400611160116841F40071116069
:10E7C000023B012B0CD81F4B1A6842F480521A608E
:10E7D0001A6822F480521A601A6842F480621A6041
:10E7E00000233B7792E702263046BDE8F88322F407
:10E7F00000721A601A6851051ED51A6822F48062E8
:10E800001A6003233B7796E7D9F80430DB0704D579
:10E810000C4A536943F0040353610A4C636943F49F
:10E82000803363614FF47A70FFF736FF636923F03A
:10E83000040306466361B0E73C777CE738777AE704
:10E8400028000020002002402DE9F04F0D6883B021
:10E85000002D00F0928000234FF0010808FA03F722
:10E8600017EA050C00F084804C6824F01009B9F117
:10E87000020F00F08580D0F800B04FEA430E03226B
:10E8800002FA0EF204F0030A2BEA020B09F1FF3937
:10E890000AFA0EFA4AEA0B0AB9F1010F6FEA02020C
:10E8A000C0F800A040F29480C76817408A6802FA56
:10E8B0000EF23A43E700C2605AD55D4F3A6E42F01D
:10E8C00001023A663A6E02F001020192019A23F0C7
:10E8D000030202F1804202F5803203F0030E9768D2
:10E8E0004FEA8E0E0F2606FA0EF9B0F1904F27EA86
:10E8F000090719D04F4EB04200F086804E4EB0420C
:10E9000000F087804D4EB04277D04D4EB04200F0BF
:10E9100087804C4EB0420CBF4FF005094FF00609FE
:10E9200009FA0EFE47EA0E079760474A1268E603A7
:10E930006FEA0C07444E54BF3A404CEA0202326080
:10E940007268A603404E54BF3A404CEA020272601D
:10E95000B268E6023C4E54BF3A404CEA0202B26052
:10E96000F268A402384C54BF3A404CEA0202E2601A
:10E97000013335FA03F27FF471AF03B0BDE8F08FD5
:10E980004FEAD30900EB89090A69D9F820A003F0FE
:10E99000070E4FEA8E0E0F2602FA0EF206FA0EFE50
:10E9A0002AEA0E0A42EA0A02C9F82020D0F800A09A
:10E9B0004FEA430E032202FA0EF204F003092AEA98
:10E9C000020A09FA0EF949EA0A09D243C0F800908E
:10E9D000D0F808A0CE6802EA0A0A06FA0EF949EA57
:10E9E0000A09C0F80890D0F8049029EA0709270915
:10E9F0009F4047EA0907476056E74FF0030909FAC5
:10EA00000EFE47EA0E078FE708FA0EFE47EA0E07EA
:10EA10008AE74FF0020909FA0EFE47EA0E0783E77C
:10EA20004FF0040909FA0EFE47EA0E077CE700BF23
:10EA3000001002400004004800080048000C004894
:10EA40000010004800140048000401400369194206
:10EA500014BF0120002070470AB1816170478162B4
:10EA6000704700BF044A5169014200D1704708B5A0
:10EA7000506106F0B3F808BD00040140002860D0E2
:10EA8000F0B590F8293287B0044603F0FF02002B5E
:10EA900052D00323206884F8293201F0F3FE656820
:10EAA0006DB300234FF0010E194604EB4312981C7E
:10EAB00003F1010C82F82830D38640015FFA8CF311
:10EAC000AB42C2E90E1182F829E082F82B102150E6
:10EAD000EBD30023194604EB431203F10A0003F1C0
:10EAE000010C82F8283140015FFA8CF3AB42C2E995
:10EAF0004E1182F8291182F82B112150EBD32546B3
:10EB0000EC4655F8107B0FCDACE80F002B68CCF825
:10EB1000003004F1040E9EE80E00384601F0BCFE01
:10EB2000E36901220026934284F8246084F82922B4
:10EB300009D0304607B0F0BD80F8282203F068FA0B
:10EB4000A7E701207047204600F006FC304607B0DA
:10EB5000F0BD00BF90F82832012B0ED010B504464E
:10EB60000123006884F8283202F0CCFA206801F012
:10EB70007DFE002084F8280210BD0220704700BFEF
:10EB80002DE9F04F044683B0006802F0C7FA000494
:10EB900000F1E980206802F0C1FA470500F1C58064
:10EBA000206802F0BBFA10F4804F206807D0B0F85C
:10EBB000443023F480431B041B0CA0F8443002F0C3
:10EBC000ADFA10F4005F206807D0B0F8443023F4A9
:10EBD00000531B041B0CA0F8443002F09FFAC6043B
:10EBE00048D4206802F09AFA050569D4206802F03A
:10EBF00095FA010628D52268B2F8443023F0800344
:10EC00001B041B0CA2F8443094F86032002B77D11F
:10EC1000B2F840309BB243F00403A2F84030B2F89F
:10EC200040309BB243F008030121A2F8403084F841
:10EC30006012B2F85430C3F38D0303F03C03C4F800
:10EC40006432204600F0A2FB206802F067FA8205D9
:10EC50005ED4206802F062FAC30508D52268B2F8D3
:10EC6000443023F480731B041B0CA2F8443003B01F
:10EC7000BDE8F08F2268B2F8403023F004031B0493
:10EC80001B0CA2F84030B2F8403023F008031B04FC
:10EC90001B0CA2F8403094F86032012B00F0EE819A
:10ECA000204603F033FA2068B0F8443023F4805350
:10ECB0001B041B0CA0F8443002F030FA050595D572
:10ECC0002068B0F840309BB243F00803A0F8403011
:10ECD000B0F8443023F400631B041B0CA0F844304C
:10ECE000B0F840309BB243F00403A0F8403002F08B
:10ECF00015FAC0043FF57AAF204603F0F7F975E73F
:10ED0000204603F0F3F9206802F008FA8205A0D546
:10ED10002268B2F8443023F400731B041B0C204615
:10ED2000A2F8443003F0C6F993E72268B2F8443001
:10ED300023F480631B041B0CA2F84430204603F02C
:10ED4000C3F994F82832012B3FF42AAF00250123A0
:10ED5000206884F8283284F82450294602F0CCF93F
:10ED600084F828521CE72268B2F84430190410468F
:10ED70007FF511AFDFF874A3DFF874B310E011F082
:10ED8000100100F08980018811F400658BB240F019
:10ED9000C2801B0400F10381B0F844301B0437D556
:10EDA000B0F84450A9B215F00F05E8D02EB230F8F3
:10EDB00026309FB21B042DD43906EDD530F826300D
:10EDC0009BB203EA0A0343F4004320F8263004EB25
:10EDD0004515B0F8502095F8281040F2024310FA7B
:10EDE00082F203EBC10304EB4616D35AC3F30903C3
:10EDF0007364EA6B1344EB63326C002A77D12046CC
:10EE000003F050F92068B0F844301B040246C7D420
:10EE10001046C0E630F8262040F68F73134043F0CA
:10EE2000800320F8263004EB45194FEA451899F87D
:10EE30003431002B40F09280B0F8503000F206429E
:10EE400012FA83F399F8282133F83230C3F3090317
:10EE5000002B40F01A8104EB461104EB0800D1F8B6
:10EE600044211A44C1F84421D0F83C211A44C0F886
:10EE70003C21D1F840C1BCF1000F04D0D0F83811CA
:10EE80008B4280F00B81A044204698F8281103F0B3
:10EE900001F9206802468FE703889BB203EA0A0360
:10EEA00043F400430380B0F8503010FA83F294F832
:10EEB000280040F2024303EBC0032046D35AE26B22
:10EEC000C3F309031A446364E26303F0EBF894F8B4
:10EED0002430EBB1236CDBB994F82420206842F095
:10EEE0008002A0F84C2084F82430024654E701F058
:10EEF000070604EB46152946EB632A64012300222A
:10EF000028316A6485F8286085F8293001F040FFCF
:10EF10002068024640E7B0F8502094F8281140F2EB
:10EF2000064310FA82F203EBC10304F50C71D35AC5
:10EF3000B4F82E21C3F30903C4F8443102F0F4F805
:10EF40002268118840F68F730B4043F080031380D2
:10EF5000204603F099F8206802461DE799F8283109
:10EF60001AB200EB830130F8222012F4804FB0F87F
:10EF700050205FD100F2064C1CFA82F232F8333096
:10EF8000C3F30903002B40F0AC800A8892B202EA76
:10EF90000B0242F4004242F0C0020A805BE70288A2
:10EFA00040F68F73134043F080030380B0F8502085
:10EFB00094F8281140F2064310FA82F203EBC103E1
:10EFC000D35AC3F30903C4F8443193B1D4F83C11C4
:10EFD00079B1B4F82E2102F0A7F8D4F83C31D4F876
:10EFE0004421134420462946C4F83C3103F052F82A
:10EFF0002068B0F85030D4F838119BB2024600F2C5
:10F00000064579B33E2961D84E08CF0748BF01367F
:10F01000B602B6B2EE52038823F4804323F07003A5
:10F020001B041B0C83F4405343F4004343F0800360
:10F030000380B1E600F2024C1CFA82F232F833305F
:10F04000C3F30903002BA0D0B9F83021D9F83C1143
:10F05000019302F069F899F828112268019B02EBEC
:10F06000810192E7E95A21F4F8410904090CE952B7
:10F07000E95A89B241F40041E952CCE7002184F811
:10F080006012204600F082F90AE6B9F82E21D9F87C
:10F090003C11019302F048F8019BDCE690F828113E
:10F0A00001F0070004EB40134FF0000EC3F83C21C1
:10F0B00083F82801C3E950CE206883F829E103F5DD
:10F0C000947101F065FE2068024675E64E09C90696
:10F0D000054908BF06F1FF3641EA8626B6B2EE5270
:10F0E00099E7B9F83221B1E70080FFFF0F8FFFFFEA
:10F0F0008F8FFFFF90F82822012A0DD010B504460B
:10F100000122006884F8282284F8241001F0F4FF1A
:10F11000002084F8280210BD0220704701F0070C7F
:10F1200011F0800F10B500EB4C11044621D100EB1B
:10F130004C104FF0000E01F5947180F829E10A613E
:10F140004A7881F800C0CB700AB1A1F80EC0022B3A
:10F1500004BF00230B7194F82832012B11D0012336
:10F16000206884F8283201F0B1FB002084F82802DE
:10F1700010BD00EB4C104FF0010E283180F829E053
:10F18000DDE7022010BD00BF01F0070300EB4312D2
:10F1900011F0800F10B51146044613D102F5947199
:10F1A000002082F829010B7094F82832012B12D02C
:10F1B0000123206884F8283201F00AFD002084F839
:10F1C000280210BD2831012082F829000B7094F824
:10F1D0002832012BECD1022010BD00BF10B501F088
:10F1E000070E00EB4E1C00240068CCF83C21CCF844
:10F1F00040310CF59471CCF844418CF829418CF8DD
:10F2000028E101F0C5FD204610BD00BF01F0070157
:10F2100000EB4110D0F84401704700BF10B501F079
:10F22000070E00EB4E1C6146CCF840300024012351
:10F230000068CCF83C202831CCF844408CF828E019
:10F240008CF8293001F0A4FD204610BD38B5436884
:10F2500001F007059D422AD80B06044617D400EB9F
:10F26000411303F59471002283F8292101238B7047
:10F270000D7094F828229A4217D0206884F828321A
:10F2800001F0C2FEADB1002084F8280238BD00EBC9
:10F29000451319460122283183F8292001238B7058
:10F2A0000D7094F828229A42E7D1022038BD01203F
:10F2B00038BD206804F50C7101F034FFE3E700BFAE
:10F2C00038B5436801F00F029A422BD801F00703CA
:10F2D00000EB431211F0800F0446114615D102F5E0
:10F2E00094710020002582F829018D700B7094F82C
:10F2F0002832012B14D00123206884F8283201F031
:10F30000ABFE84F82852284638BD2831012000255C
:10F3100082F829008D700B7094F82832012BEAD105
:10F32000022038BD012038BD11F0800F09D001F056
:10F33000070100EB411028304AB9C3800273002056
:10F34000704700EB411101F59470002AF5D00122BD
:10F3500083600273002070470268002110B480F8B7
:10F360006012B2F8543001249BB22343C0F86842C3
:10F37000A2F85430B2F854305DF8044B9BB243F01D
:10F3800002030846A2F85430704700BF704700BF20
:10F39000374A60B9136803F4C063B3F5806FD2F8DD
:10F3A00080301DD023F48073C2F880307047B0F5F0
:10F3B000007F07D0136823F4C06343F48063002008
:10F3C00013607047136803F4C063B3F5806FD2F81D
:10F3D00080302BD043F480730020C2F88030704717
:10F3E00023F48073C2F8803013682248224923F442
:10F3F000C06343F4007313600368322000FB03F31F
:10F400005069A1FB03139B0C400503F1010306D5D2
:10F4100000E023B15169490503F1FF33F9D4144BDE
:10F420005B695B0554BF00200320704743F4807381
:10F43000C2F8803013680F480F4923F4C06343F4C7
:10F44000007313600368322000FB03F35069A1FBD3
:10F4500003139B0C400503F10103E0D501E0002BF1
:10F46000DDD05169490503F1FF33D8D5F7E700BF77
:10F4700000700040C405002083DE1B43002800F01C
:10F48000C3812DE9F0410368D90782B004462DD528
:10F49000A6498A68C96802F00C020C2A00F00A81A9
:10F4A000082A00F00C816368B3F5803F00F03381D7
:10F4B000B3F5A02F00F09B819C4D2A6822F4803286
:10F4C0002A602A6822F480222A60002B40F02881DA
:10F4D000FEF76CFE064605E0FEF768FE801B64281A
:10F4E00000F242812B689F03F6D423689E0728D53B
:10F4F0008E4A9368D26803F00C030C2B00F0EC806A
:10F50000042B00F0EE80E368884D002B00F01D8195
:10F510002B6843F480732B60FEF748FE064605E037
:10F52000FEF744FE801B022800F21E812B6858055E
:10F53000F6D56B68226923F0FE4343EA02636B60F1
:10F5400023681A0719D56369784D002B00F09E8057
:10F55000D5F8943043F00103C5F89430FEF726FE49
:10F56000064605E0FEF722FE801B022800F2FC8022
:10F57000D5F894309F07F5D52368590741D56B4BD3
:10F580009A6DD20000F1F4809A6D42F080529A6533
:10F590009B6D03F080530193019B0125644E3368FA
:10F5A000DF0540F11381A368012B00F0E380052BF8
:10F5B00000F069815D4ED6F8902022F00102C6F875
:10F5C0009020D6F8902022F00402C6F89020002B5C
:10F5D00040F0D780FEF7EAFD41F28838074605E0A3
:10F5E000FEF7E4FDC01B404500F2BE80D6F8903027
:10F5F0009A07F5D425B14D4A936D23F08053936556
:10F6000023689B0618D5A369484D002B00F0CA80DB
:10F61000D5F8983043F00103C5F89830FEF7C6FDE1
:10F62000064605E0FEF7C2FD801B022800F29C8022
:10F63000D5F898309F07F5D5E06918B33B4DAB6816
:10F6400003F00C030C2B00F02C812B68022823F014
:10F6500080732B6000F0DA80EB6823F00303EB602B
:10F66000EB6823F0887323F48033EB60FEF79EFD94
:10F67000044604E0FEF79AFD001B022874D82B68AC
:10F680009B01F7D4002002B0BDE8F081D5F894309A
:10F6900023F00103C5F89430FEF788FD064604E028
:10F6A000FEF784FD801B02285ED8D5F894309807B9
:10F6B000F6D461E701F0030103297FF4F4AE1B4A9D
:10F6C000126892037FF512AF6268002A7FF40EAFD2
:10F6D000012002B0BDE8F08102F00302022A7FF4AB
:10F6E00012AF124B1B685D0502D5E368002BEFD00B
:10F6F0000E4A206953680F4923F0FE4343EA006332
:10F7000053600868FEF710FD0028E1D123681A074E
:10F710007FF533AF17E7054A136843F4803313606E
:10F72000FEF744FD014E05460BE000BF001002400D
:10F730000070004024000020FEF738FD401B6428C4
:10F7400012D833689B03F7D5CFE62B6823F4807378
:10F750002B60FEF72BFD06462B685905D6D5FEF724
:10F7600025FD801B0228F7D9032002B0BDE8F081F7
:10F77000002513E7654AD2F8903043F00103C2F840
:10F780009030FEF713FD614F064641F2883804E0E1
:10F79000FEF70CFD801B4045E6D8D7F8903099075E
:10F7A000F6D527E7D5F8983023F00103C5F898304F
:10F7B000FEF7FCFC064604E0FEF7F8FC801B02287E
:10F7C000D2D8D5F898309807F6D435E7336843F4A3
:10F7D00080733360FEF7EAFC07463368D8053FF5CF
:10F7E000E2AEFEF7E3FCC01B0228F6D9BCE703F14A
:10F7F0008043A3F53C331A6842F480221A601A68E9
:10F8000042F480321A608BE701207047FEF7CEFC8D
:10F81000064604E0FEF7CAFC801B0228A4D82B6829
:10F820009901F7D4E9683A4B226A606A374E0B4077
:10F830001343D4E90A1243EA012343EAC263D4E939
:10F840000C120138490843EA00130139520843EA0F
:10F850004153013A43EA4263EB602B6843F0807303
:10F860002B60EB6843F08073EB60FEF79FFC04466F
:10F8700005E0FEF79BFC001B02283FF675AF3368DE
:10F880009A01F6D5FEE6214BD3F8902042F004020F
:10F89000C3F89020D3F8902042F00102C3F89020E2
:10F8A0006FE701283FF4EFAEEB68226A03F0030133
:10F8B00091427FF40DAF616A03F0F0020139B2EBBF
:10F8C000011F7FF405AFA16A03F4FE42B2EB012FE2
:10F8D0007FF4FEAEE16A03F07842B2EBC16F7FF4D1
:10F8E000F7AE226B520803F4C001013AB1EB425F5C
:10F8F0007FF4EEAE626B520803F0C063013AB3EBE3
:10F90000426F14BF01200020BDE600BF001002407E
:10F910000C809F01144B9A6802F00C02042A21D03B
:10F920009A6802F00C02082A1CD09A6802F00C02B5
:10F930000C2A01D000207047D968DA68D8680B4BD0
:10F94000C2F30312C0F306200132B3FBF2F303FB50
:10F9500000F0054BDB68C3F3416301335B00B0FB90
:10F96000F3F0704701487047001002400024F40093
:10F97000002800F0E980754A2DE9F843136803F088
:10F980000F038B420D4604460CD2136823F00F037D
:10F990000B431360136803F00F038B4202D0012066
:10F9A000BDE8F8832368DF0769D56768032F00F097
:10F9B000A080674B022F1B6800F097805B05EED597
:10F9C000FFF7A8FF634B984240F2BB80604A936800
:10F9D00023F0F00343F0800393604FF080095C4E06
:10F9E000B36823F003033B43B360FEF7DFFB41F250
:10F9F0008838074604E0FEF7D9FBC01B404571D8A4
:10FA0000B368626803F00C03B3EB820FF3D1236891
:10FA10009F0736D4B9F1000F03D0B36823F0F00389
:10FA2000B3604A4E336803F00F03AB4246D82368F5
:10FA30005A0706D54649E0688A6822F4E062024324
:10FA40008A601B0707D5424A2169936823F46053F3
:10FA500043EAC1039360FFF75DFF3D4A3E4C926865
:10FA60003E49C2F303120346A25C3D4802F01F0266
:10FA7000D3400B600068BDE8F843FEF755BB9E0716
:10FA8000CFD5580704D532498A6842F4E0628A60CB
:10FA9000190706D52E4A936823F47C5343F4E06398
:10FAA00093602B4AA1689368284E23F0F0030B4320
:10FAB0009360336803F00F03AB42B8D9336823F087
:10FAC0000F032B433360FEF771FB41F28838074682
:10FAD000336803F00F03AB42A9D0FEF767FBC01BEE
:10FAE0004045F5D90320BDE8F8839A033FF568AF98
:10FAF00055E7174A116888017FF551AFD068D16882
:10FB0000D2681848134EC1F303110131B0FBF1F173
:10FB10000F48C2F3062201FB02F2C168C1F3416142
:10FB200001314900B2FBF1F2B2420AD9826812F007
:10FB3000F00F3FF44BAF990703D5A368002B3FF4B8
:10FB400045AF4FF000094AE701207047002002400E
:10FB50000010024000B4C404C8D10108C40500204C
:10FB6000240000200024F4002DE9F041036804463D
:10FB700013F4002082B056D09F4B9A6DD50040F10F
:10FB80000C8100279D4D2B6843F480732B60FEF79A
:10FB90000DFB064605E0FEF709FB831B022B00F276
:10FBA00007812B68D805F6D5934DD5F8903013F41E
:10FBB000407327D0226C9A4225D0D5F89010D5F802
:10FBC000903043F48033C5F89030D5F8903023F46A
:10FBD0008033C5F8903021F44073C907C5F89030E0
:10FBE00040F10881FEF7E2FA41F28838064605E066
:10FBF000FEF7DCFA801B404500F2DA80D5F8903041
:10FC00009B07F5D5236C7C49D1F8902022F44072F3
:10FC10001343C1F89030002027B1774A936D23F049
:10FC2000805393652368DE0708D573496568D1F86A
:10FC3000882022F003022A43C1F888209D0708D5B6
:10FC40006D49A568D1F8882022F00C022A43C1F83A
:10FC50008820590708D56849E568D1F8882022F03E
:10FC600030022A43C1F888201A0708D5624925695D
:10FC7000D1F8882022F0C0022A43C1F888209F06CC
:10FC800008D55D496569D1F8882022F440622A438D
:10FC9000C1F888205E0608D55749A569D1F88820A3
:10FCA00022F440522A43C1F888201D0608D5524943
:10FCB000E569D1F8882022F440422A43C1F888201F
:10FCC000D90508D54C49256AD1F8882022F440325C
:10FCD0002A43C1F888209A0508D54749656AD1F8B2
:10FCE000882022F440222A43C1F888205F050BD5E2
:10FCF0004149A56AD1F8882022F440122A43B5F57B
:10FD0000801FC1F8882055D01E050BD53A49E56AF9
:10FD1000D1F8882022F440022A43B5F5800FC1F8BB
:10FD200088204CD0DD040BD53349256BD1F88820D1
:10FD300022F040722A43B5F1807FC1F8882043D079
:10FD400099040BD52C49656BD1F8882022F04062CC
:10FD50002A43B5F1006FC1F888203AD05A040BD578
:10FD60002549A56BD1F8882022F040622A43B5F1DD
:10FD7000006FC1F8882031D01B040BD51E4AE16BFF
:10FD8000D2F8883023F040530B43B1F1805FC2F8C2
:10FD9000883028D002B0BDE8F0819A6D42F08052E0
:10FDA0009A659B6D03F080530193019B0127E9E65F
:10FDB000032031E7CA6842F48012CA60A4E7CA6827
:10FDC00042F48012CA60ADE7CA6842F48012CA6089
:10FDD000B6E7CA6842F48012CA60BFE7CA6842F454
:10FDE0008012CA60C8E7D36843F48033D36002B09E
:10FDF000BDE8F081134606E70010024000700040A5
:10FE0000114B9A6B42F4807210B49A63996B0F4A4B
:10FE100021F480719963D0E90141036823430B43C6
:10FE2000D0E90341234343EA014353601368416926
:10FE30005DF8044B23F4FE4343EA01231360136887
:10FE400043F0600313607047001002400020004040
:10FE5000F8B505460E461746701C2B6810D19A68F7
:10FE600012F4C05FFBD19A681106FCD4986810F4B4
:10FE7000C06004D01A7B986810F4C060FAD1F8BD55
:10FE80009A6812F4C05F2BD0FEF790F9C01B86422F
:10FE9000E2D82B6869685A68B1F5827F22F0E002E7
:10FEA0005A602ED0AA6AB2F5005F07D11A6822F410
:10FEB00000521A601A6842F400521A60012385F851
:10FEC0005D302B6E002243F0200385F85C202B660A
:10FED0000320F8BDFEF76AF9C01B86422B68D9D90A
:10FEE0009A681206F6D406E01B7BFEF75FF9C01B8A
:10FEF00086422B68CED99C6814F4C064F4D12046A5
:10FF0000F8BDAA68B2F5004F02D0B2F5806FC9D132
:10FF10001A6822F040021A60C4E700BF00285FD0D0
:10FF2000F8B590F85D3000228262044603F0FF02CB
:10FF3000002B45D02168E768022384F85D300B6808
:10FF4000B7F5E06F23F040030B602FD9B7F5706F62
:10FF500048D1236BA56A002B37D1022323630020ED
:10FF6000D4E9013213432269134362691343D4E98C
:10FF700006621343626A3A43276A4FEA164C3B43D0
:10FF800006F40076676B33432B430B603A430CF067
:10FF900004031A4302434A60CB69002023F4006340
:10FFA0000122CB61206684F85D20F8BD13D0256B5B
:10FFB0000023A3625DB9012323634FF48050CFE790
:10FFC00080F85C2005F0CCF9B4E70020C8E71D46B6
:10FFD0004FF48050C4E7236BA56A002BEDD1EAE70C
:10FFE00001207047256B0023A362002DB5D01D466C
:10FFF0001846B5E72DE9F041044690F85C00012869
:020000040801F1
:1000000082B079D01D46012384F85C3088461746BB
:10001000FEF7CCF894F85D30012B0646D8B209D033
:1000200002200122002384F85D2084F85C3002B0B5
:10003000BDE8F081B8F1000FF3D0002FF1D000231C
:10004000A2682364032184F85D10C4E91333236696
:10005000A4F84430E787A4F846302368C4F8388011
:10006000B2F5004F08BF1A68A78704BF42F4804268
:100070001A60196849061A4603D4196841F040010C
:100080001960E168B1F5E06F3AD96168002900F0C4
:100090009280012F00F08F80E18F89B2B1B1691C8D
:1000A00060D19A68970740F19E80A26B32F8021BDC
:1000B000D960B4F83EC0A2630CF1FF3C1FFA8CFC7F
:1000C000A4F83EC0E28F92B2002AEAD13246294615
:1000D0002046FFF7BDFE08B120232366A36833B98D
:1000E00022680193D368019393680193019B206E6A
:1000F000003818BF012094E7022002B0BDE8F0816B
:100100006268002A61D0012F5FD0E38F9BB2002B81
:10011000DCD0681C11D03BE0E38F9BB2012B6BD984
:10012000A16B31F8023BD360E38FA163023B9BB22A
:10013000E387E18F89B20029C8D0226893689907C4
:10014000EAD4FEF733F8F4E7A16B31F8023BD36051
:10015000E38FA163013B9BB2E387E38F9BB2002B4C
:10016000B4D0226893689807EED4FEF71FF8801B7E
:10017000A842F2D3032054E732F8021BD960E38F80
:10018000A263023B9BB2E387E38F9BB2002B9DD01F
:1001900023689A68920745D5E28F92B2012AA26B32
:1001A000EAD812781A73E38FA26B013B01329BB23B
:1001B000A263E387E8E7414631F8020BD860A16308
:1001C000E18F013989B2E18766E7E28F92B2012AB5
:1001D0001DD9414631F8022BDA60E38FA163023B5F
:1001E0009BB2E38791E7FDF7E1FFE38F9BB2002B22
:1001F0003FF46CAF236854E7A36B1B781373E38F52
:10020000A26B013B01329BB2A263E38791E798F8AE
:1002100000201A73E38FA26B013B01329BB2A263F1
:10022000E38772E7FDF7C2FF801BA842A2D2ABE7CB
:100230002DE9F843044690F85C00089E012800F080
:1002400097801F46012384F85C3089469046FDF76D
:10025000ADFF054694F85D0063680128C1B210D077
:10026000B3F5827F08D002200122002384F85D20AC
:1002700084F85C30BDE8F883A268002AF3D1042931
:10028000F1D1B9F1000F76D0B8F1000F73D0002F83
:1002900071D094F85D20E168C4F84080042A1CBF46
:1002A000052284F85D2000222266C4E91322226818
:1002B000A4F84670B1F5E06FE7875168A4F8447080
:1002C000C4F83890A78758D8012F00F0248121F472
:1002D000805151601168490600F1E380116841F0D6
:1002E00040011160002B00F0DF80012F00F0DC8066
:1002F0000127E38F9BB22BB9B4F846309BB2002B99
:1003000000F0868022689368990705D5E38F9BB239
:1003100013B1002F40F0E480936813F001031ED066
:10032000B4F8461089B2D1B1B4F8461089B20129A7
:1003300040F2C880216CD06821F8020B2164B4F827
:100340004610023989B2A4F84610B4F8461089B2B2
:1003500001291F4603D8536843F480535360FDF7C7
:1003600025FF431BB342C4D3731CC2D003207BE7D9
:100370000220BDE8F883012076E721F48051516026
:100380001168480603D4116841F040011160002B48
:1003900061D1494631F8023BD360E38FA163013B51
:1003A0009BB2E387721C4FF0010728D04EE0226811
:1003B00093689B070DD5E38F9BB253B14FB1A16BEF
:1003C00031F8023BD360E38FA163013B9BB200276E
:1003D000E387936813F001030FD0B4F8461089B295
:1003E00059B1D168226C22F8021B1F46B4F846307E
:1003F0002264013B9BB2A4F84630FDF7D7FEE38FA1
:100400009BB2002BD3D1B4F846309BB2002BCED197
:100410002A4631462046FFF71BFD00283FF424AF53
:100420002023236601201FE7B4F846309BB2002B3F
:10043000EED022689368980722D4936813F00103E2
:100440000CD1FDF7B3FE401BB0428FD2E38F9BB2BD
:10045000002BEED1E8E7012FA4D19AE7B4F84610BB
:1004600089B20029EDD0D168226C22F8021B1F4608
:10047000B4F846302264013B9BB2A4F84630E0E772
:10048000E38F9BB2002BD8D0002FD6D0A36B33F8CC
:10049000021BD160A363E38F013B9BB20027E3877C
:1004A000CBE7002B7FF424AFE38F9BB2012B3AD92B
:1004B000494631F8023BD360E38FA163023B9BB214
:1004C000E38715E71F46236C127B1A70236C0133F8
:1004D0002364B4F84630013B9BB2A4F846303EE7B3
:1004E000E38F9BB2012BA36B09D933F8021BD160B8
:1004F000A363E38F023B9BB20027E3870CE71B78E3
:100500001373E38FA26B013B01329BB2A263E387BB
:100510002268002700E741F48051516011684906C4
:100520007FF5DCAEC0E799F800301373E38FA26B60
:10053000013B01329BB2A263E387D9E600286AD06F
:1005400010B590F83D30044603F0FF02002B57D061
:1005500022683249022384F83D308A4213683BD036
:10056000B2F1804F21D0A1F594318A421DD001F51E
:1005700080618A4219D001F596318A422CD001F56A
:1005800040618A4241D001F580618A423DD001F547
:1005900080618A4239D0A069E16823F08003034377
:1005A00013606368D162936210E0A168206923F050
:1005B00070030B4323F44073A169034323F08003CA
:1005C000E0680B4361681360D0629162012353615C
:1005D00084F83D30002010BDA068216923F070032D
:1005E000034323F440730B43A16923F080030B43BF
:1005F0001360E368D3626368936263691363E5E73A
:1006000080F83C2004F03CFEA2E72069A16923F4B5
:1006100040730343E9E70120704700BF002C01400D
:100620000368094AD96841F00101D96099680A4014
:10063000062A06D0B2F5803F03D01A6842F00102C4
:100640001A600020704700BF07000100704700BF1C
:10065000704700BF704700BF704700BF03681A694A
:10066000910710B5044603D5DA68920700F18A8035
:100670001A69520702D5DA68500770D41A6911074F
:1006800002D5DA68120758D41A69D10602D5DA6899
:10069000D2063ED41A69D00703D5DA68D10700F133
:1006A0008A801A69120603D5DA68100600F18B8079
:1006B0001A69D10503D5DA68120600F18C801A692F
:1006C000500603D5DA68510600F18D801A6992064A
:1006D00003D5DA68900600F18E801A69D10203D53D
:1006E000DA68D20200F18F801A69900203D5DA68C5
:1006F000910200F190801A69520203D5DA68500223
:1007000000F191801A69110202D5DA6812024AD406
:1007100010BD6FF01001082219612277DB6913F414
:10072000407F204640F09080FFF790FF2046FFF783
:1007300091FF002223682277ACE76FF008010422C2
:1007400019612277DB699B0720467AD1FFF77EFF8C
:100750002046FFF77FFF00222368227794E76FF09F
:1007600004010222196122779B6913F4407F20461D
:1007700064D1FFF76BFF2046FFF76CFF0022236870
:1007800022777BE76FF002010122196102779B69F2
:10079000990750D1FFF75AFF2046FFF75BFF002271
:1007A0002368227764E76FF4000220461A61BDE8EF
:1007B000104000F059B86FF001021A61204601F0B4
:1007C00091FB23686DE76FF080021A61204600F00C
:1007D00041F823686CE76FF480721A61204600F0DC
:1007E0003BF823686BE76FF040021A612046FFF781
:1007F00033FF23686AE76FF020021A61204600F099
:1008000027F8236869E76FF480121A61204600F028
:1008100025F8236868E76FF400121A61204600F09B
:100820001FF8236867E76FF480021A61204600F022
:1008300019F8236866E7FFF70BFFB0E7FFF708FF3B
:100840009CE7FFF705FF86E7FFF702FF71E700BFB0
:10085000704700BF704700BF704700BF704700BFC0
:10086000704700BF704700BF704700BF02460020BE
:10087000B2F840309BB243F43F4343F08003A2F808
:1008800040307047B0F84010034644F27F020A40FF
:100890000020A3F84020704784B0844601A880E877
:1008A0000E0000200123ACF84030ACF84000ACF85A
:1008B0004400ACF85000BCF840309BB243F43F43D6
:1008C00043F08003ACF8403004B0704770B591F845
:1008D00000E0CC780FFA8EFC034630F82C2022F48E
:1008E000EC4222F070021204120C032C00F2698117
:1008F000DFE804F04E4A040242F4C062002048F2ED
:100900008006324323F82C2033F82C20AE4D92B2CF
:100910002A4042EA0E02164323F82C600A7B002A82
:1009200040F089804A78002A00F0EF80CA88B3F846
:10093000501003EBCE0E0EF5806E520889B25200B5
:100940002EF8012033F82C20560609D533F82C2038
:1009500092B22A4042F4004242F0C00223F82C2016
:1009600033F82C2022F4E04222F040021204012C41
:100970004FEA124258D082F0200242F4004242F084
:10098000800223F82C2070BD42F480620020B6E77C
:1009900042F400722046B2E733F82C20510409D506
:1009A00033F82C2092B22A4042F4404242F08002B6
:1009B00023F82C2033F82C2052060DD533F82C20A8
:1009C00022F4E04222F070021204120C42F40042BF
:1009D00042F0C00223F82C2033F82C2022F4E0420D
:1009E00022F070021204120C42F4404242F08002E3
:1009F00023F82C2033F82C2022F4E04222F040028D
:100A00001204120C012C18BF82F0200242F40042A2
:100A100042F0800223F82C2033F82C2022F480426C
:100A200022F070021204120C42F4004242F08002E2
:100A300023F82C2070BD33F82C2092B22A4042F4C7
:100A4000014242F0800223F82C2003EBCE060A89F3
:100A5000B3F850E0520816FA8EFE5200AEF80024A9
:100A6000B3F850E04A8916FA8EFE52085200AEF8EA
:100A700004244A78002A8FD133F82C20560409D553
:100A800033F82C2092B22A4042F4404242F08002D5
:100A900023F82C2033F82C2054060DD533F82C20C5
:100AA00022F4E04222F070021204120C42F40042DE
:100AB00042F0C00223F82C2033F82C2022F4E0422C
:100AC00022F070021204120C42F4004242F0C00202
:100AD00023F82C2033F82C2022F4804222F07002DC
:100AE0001204120C48F2800182F440520A4323F8A7
:100AF0002C2033F82C2022F4E04222F04002120491
:100B0000120C114323F82C1070BDB3F85040CA8862
:100B1000096903EBCE0E1EFA84F452085200A4F8C1
:100B20000424B3F850201EFA82F261B33E293CD867
:100B30004C08CD0748BF0134A402A4B2A2F8064471
:100B400033F82C2052040DD533F82C2022F4E04247
:100B500022F070021204120C42F4404242F0800271
:100B600023F82C2033F82C2022F4804222F070024B
:100B70001204120C82F4405242F4004242F080020D
:100B800023F82C2070BDB2F8061421F4F8410904B2
:100B9000090CA2F80614B2F806146FEA41416FEA94
:100BA000514189B2A2F80614CAE74C09C90607499F
:100BB00008BF04F1FF3441EA842189B2A2F8061487
:100BC000BEE701209BE600BF8F8FFFFF0080FFFF85
:100BD0000B7BCBB94B780A78002B00F0B18030F852
:100BE0002230590600F1C58030F8223023F4E0436A
:100BF00023F040031B041B0C43F4004343F0800329
:100C000020F82230002070474B780A78002B4BD117
:100C100030F8223059040DD530F8223023F4E04367
:100C200023F070031B041B0C43F4404343F0800388
:100C300020F8223030F822305B060DD530F8223013
:100C400023F4E04323F070031B041B0C43F4004324
:100C500043F0C00320F8223030F8223023F4E04380
:100C600023F070031B041B0C43F4004343F0C00348
:100C700020F8223030F8223023F4804323F0700330
:100C80001B0448F280011B0C0B4320F8223030F883
:100C9000223023F4E04323F040031B041B0C1943D0
:100CA00020F822100020704730F8223059040DD56A
:100CB00030F8223023F4E04323F070031B041B0CB4
:100CC00043F4404343F0800320F8223030F82230D0
:100CD0005B060DD530F8223023F4E04323F0700397
:100CE0001B041B0C43F4004343F0C00320F82230E4
:100CF00030F8223023F4E04323F070031B041B0C74
:100D000043F4404343F0800320F8223030F822308F
:100D100023F4E04323F040031B0448F280011B0C42
:100D20000B4320F8223030F8223023F4804323F0A4
:100D300070031B041B0C194320F82210002070477D
:100D400030F822305B040DD530F8223023F4E04334
:100D500023F070031B041B0C43F4404343F0800357
:100D600020F8223030F8223023F4804323F070033F
:100D700040E730F8223023F4E04323F070031B04F3
:100D80001B0C43F4004343F0C00320F822302BE750
:100D90004A78012A30B568D08B690C69A34284BFB8
:100DA0001D1B23460C7B98BF00258D6144BBB0F80A
:100DB00050200C7800F2064515FA82F202EBC402CC
:100DC000002B00F0C1803E2B00F2D6805C08DD07CE
:100DD00048BF0134A402A4B214800A7830F822304B
:100DE00023F4804323F070031B041B0C83F4405353
:100DF00043F4004343F0800320F82230002030BD4C
:100E0000002AEAD1B0F850400A7800F2024515FAFB
:100E100084F4002B40F0BB8034F8323023F4F843E4
:100E20001B041B0C24F8323034F832306FEA434391
:100E30006FEA53439BB224F83230B0F8504000F2CE
:100E4000064313FA84F434F8323023F4F8431B04D5
:100E50001B0C24F8323034F832306FEA43436FEA27
:100E600053439BB224F83230B7E78A690B699A4240
:100E700084BFD41A1A460B7B98BF00248C619BB3A5
:100E80000C780FFA84FE30F82E3013F0400FB0F8D3
:100E9000503067D000F2064515FA83F303EBC40324
:100EA00094B21C804B8992B2013200F580645208E2
:100EB0001C444B6909D003EB4202E41AB3F800C0AA
:100EC00023F804C002339342F8D130F82E3023F4D3
:100ED000E04323F070031B041B0C43F4404343F036
:100EE000800320F82E301CE095B22A46B1F806C0E7
:100EF0004B69013200F580645208644407D003EB6B
:100F0000420CE41A1A881A5302339C45FAD1B0F8FD
:100F100050300A7800F2024414FA83F303EBC20360
:100F20001D800A7830F8223023F4E04323F0400398
:100F30001B041B0C83F0300343F4004343F0800395
:100F400020F82230002030BD138823F4F8431B041E
:100F50001B0C138013886FEA43436FEA53439BB221
:100F600013803AE700F2024515FA83F303EBC4035A
:100F700094B21C800B8996E75C09DB06214B08BF05
:100F800004F1FF3443EA84239BB2138025E73E2B10
:100F900019D85D0813F00103AC4618BF05F1010C28
:100FA0004FEA8C2C1FFA8CFC24F832C0B0F8504069
:100FB00000F2064C1CFA84F403B10135AD02ADB267
:100FC00024F8325009E75D0913F01F03AE46AC4622
:100FD00008BF05F1FF3E0B4D45EA8E25ADB224F862
:100FE0003250B0F8504000F2064515FA84F40BB9BF
:100FF0000CF1FF3C034B43EA8C239BB224F83230C4
:10100000EBE600BF0080FFFF4B780A788BB130F829
:10101000223023F4E04323F040031B041B0C83F035
:10102000100343F4004343F0800320F822300020F3
:10103000704730F8223023F4804323F070031B0400
:101040001B0C83F4805343F4004343F0800320F8E7
:1010500022300020704700BF0B7B3BBB4B780A78E7
:1010600033B330F822305B060DD530F8223023F44C
:10107000E04323F070031B041B0C43F4004343F0D4
:10108000C00320F82230CB78012B0FD030F822306B
:1010900023F4E04323F040031B041B0C83F02003E4
:1010A00043F4004343F0800320F8223000207047CF
:1010B00030F822305B040DD530F8223023F4E043C1
:1010C00023F070031B041B0C43F4404343F08003E4
:1010D00020F8223030F8223023F4804323F07003CC
:1010E0001B041B0C83F4405343F4004343F0800380
:1010F00020F822300020704711B98023A0F84C302E
:101100000020704702460020B2F858306FEA43438F
:101110006FEA53439BB2A2F858307047B0F84400CE
:1011200080B270470020704770B502F580625E089B
:1011300010441CD06FF001056D1A8A1C0544B64698
:1011400035F802C002321FFA8CFC4FEA1C24BEF1B3
:10115000010E02F804CC02F8034CF1D100EB460278
:10116000DB0701EB460144BF13880B7070BD0246DC
:10117000DB0744BF13880B7070BD00BFD0F8BC32D2
:1011800083B110B5D0F8B84294F80002FF2807D018
:101190009B6894F8012221469847FF2384F8003287
:1011A000002010BD002070472023038000487047B6
:1011B0008000002038B50446D0F8B85201F092F80B
:1011C000D4F8B832C5F80C024BB1D4F8BC32D5F81B
:1011D0000402DB6805F503719847002038BD022042
:1011E00038BD00BF38B5D0F8B852E5B101EB810C7D
:1011F00000EB8C0CD0F8C042DCF81C303BB104EBA7
:101200004114A26BB3FBF2F402FB14341CB10020B6
:10121000C5F8140238BDCCF81C402346224601F024
:1012200045F8204638BD022038BD00BF2DE9F04109
:101230000B78D0F8B88282B0002713F060060C4615
:1012400005468DF80570ADF8067013D0202E17D125
:10125000CE88F6B11B063FD5D0F8BC3260789B68CB
:10126000324641469847E288414628463E4600F0CD
:10127000EFFC0AE04B780A2B1FD00B2B27D093B141
:101280002146284600F0AEFC0226304602B0BDE8FA
:10129000F081D0F8BC3248789B6832469847304697
:1012A00002B0BDE8F08190F89C32032BE8D1022215
:1012B0000DF1060100F0CCFCE7E790F89C32032B1F
:1012C000DED101220DF1050100F0C2FCDDE790F84E
:1012D0009C32032BD9D0D3E74B7888F8003288F8BA
:1012E00001623246414600F0C9FC3E46CDE700BFF0
:1012F00038B504460025812100F090FF0221E56207
:10130000204600F08BFFC4F880518221204600F077
:1013100085FFD4F8B83225644BB1D4F8BC325B6891
:101320009847D4F8B80200F0E5FFC4F8B85200209E
:1013300038BD00BFF8B5037C0446ABBB4FF4007367
:101340000222812100F05AFF01230222E3621146AA
:101350004FF40073204600F051FF012608230322BA
:101360008221C4F88061204600F048FF26644FF4D3
:10137000077000F0BBFF0546C4F8B80290B1D4F87E
:10138000BC3200271B689847C5F81472C5F818725C
:10139000267CD5F80422AEB94FF400730221204612
:1013A00000F092FF3046F8BD40230222812100F078
:1013B00025FF01230222E36211464023204600F06C
:1013C0001DFFCAE74023022120463E4600F07CFF75
:1013D0003046F8BD19B1C0F8BC1200207047022099
:1013E000704700BFD0F8B8320020C3F80812C3F825
:1013F00010227047D0F8B8320020C3F804127047AA
:10140000D0F8B8229AB110B5D2F814420CB101202C
:1014100010BD0123C2F81432D2F81032D2F80822DB
:10142000036381219BB200F041FF204610BD0220E2
:10143000704700BFD0F8B8322BB1D3F8140200388F
:1014400018BF012070470220704700BFD0F8B822B3
:1014500010B58AB1047CD2F8042234B140230221B1
:10146000002400F031FF204610BD4FF4007302212C
:1014700000F02AFF204610BD0224204610BD00BF08
:1014800088B108B5D0F8B43213B10023C0F8B43233
:1014900009B1C0F8B012012380F89C32027000F04C
:1014A00053FE002008BD0220704700BF19B1C0F8EC
:1014B000B412002070470220704700BF08B500F04A
:1014C0008FFE002008BD00BF08B5D0F8B43233B19C
:1014D0001B689847003818BF0120400008BD022053
:1014E00008BD00BF08B5D0F8B4325B68984700204B
:1014F00008BD00BF38B5044600F52A75284600F03F
:101500005DFB94F8A812B4F8AE22C4F89822012327
:10151000C4F8943201F01F03012B09D0022B13D021
:1015200063B101F08001204600F086FE002038BD46
:101530002946204600F076FA002038BD294620468C
:1015400000F0F6F8002038BD2946204600F09EFA4B
:10155000002038BD38B5054669B91346D0F8942245
:10156000032A15D0052A0C460ED1C5F8941200F0B6
:1015700063FE204638BDD0F8B4329B6933B190F891
:101580009C22032A02D19847002038BD022038BD92
:10159000D0E9581291420CD9891A8A4288BF8AB27E
:1015A000C0F8601198BF92B2194600F075FB002098
:1015B00038BDD0F8B4321B691BB190F89C22032AC5
:1015C00004D0284600F070FB002038BD9847F8E7AB
:1015D00070B5044689B91346D0F89422022A1CD06B
:1015E00032F0040302D1802100F026FE94F8A032EC
:1015F000012B4FF000000DD070BDD0F8B4325B6904
:1016000033B190F89C22032A02D19847002070BD84
:10161000022070BD84F8A00270BDD0E90826B24255
:1016200027D8C369B3FBF6F506FB15355DB99E42B5
:1016300009D8D0F89822934205D22A4600F016FB2A
:10164000C4F898521CE0D4F8B432DB681BB194F8AB
:101650009C22032A1BD08021204600F0EDFD20466D
:1016600000F02EFB94F8A032012B4FF00000C3D104
:10167000D0E7921B0D460262194692B200F0F6FACC
:101680002B462A462946204600F01EFEAEE720469D
:101690009847E0E770B50022044611460125402630
:1016A000402300F0ABFD33468021C4F85851C4F804
:1016B00064610022204600F0A1FDD4F8B832A56193
:1016C0000021666284F89C52C4F894126160C4F8E8
:1016D000A41223B1D4F8B43220465B6898470020A6
:1016E00070BD00BF01740020704700BF90F89C22BD
:1016F00080F89D22042380F89C320020704700BFB0
:1017000090F89C32042B04BF90F89D3280F89C32F4
:101710000020704790F89C22032A01D000207047D7
:1017200008B5D0F8B432DB6903B19847002008BD92
:1017300030B50B7803F06003202B83B00D460446D0
:101740000DD0402B0BD09BB18021204600F074FDC2
:101750000021204600F070FD002003B030BDD4F819
:10176000B43229469B6820469847002003B030BD1C
:101770004B78092BE8D801A252F823F0D7170108BB
:10178000FF170108491701081D180108491701082A
:10179000251801085D18010849170108911801086A
:1017A000A517010889789E4D01292970CCD890F899
:1017B0009C32022B00F00E81032B00F0FA80802176
:1017C00000F03AFD0021204600F036FD2978204641
:1017D000FFF788FEC0E790F89C32013B022BB3D89C
:1017E000CA88022AB0D1D0F8A432003B014618BF03
:1017F00001235B0041F80C3F00F02AFAACE790F8B7
:101800009C32013B022B9FD84B88012BA4D1002393
:10181000C4F8A432204600F047FA9DE74B88012B1C
:101820009AD1F5E78B88002B8ED1CB88002B8BD1FA
:101830004D887F2D88D890F89C32032B84D0E9B254
:1018400080F89E1200F024FD204600F02DFA002DB5
:1018500000F0E180022384F89C327DE74A88130A75
:101860000021013BADF80610062B3FF66DAF01A13C
:1018700051F823F0371901081F1901080D19010843
:101880004917010849170108F7180108B718010896
:10189000CA88012A7FF458AF90F89C32022B00F2DC
:1018A0008180002B3FF450AF0146002341F8083FF0
:1018B00000F0CEF950E7037C002B7FF445AFD0F861
:1018C000B4320DF106001B6B984707234370BDF837
:1018D00006205AB1EB88002B9CD09A4228BF1A46AA
:1018E00001462046ADF8062000F0B2F9EB88002B47
:1018F0007FF432AF8EE7037C002B7FF425AFD0F866
:10190000B4320DF106005B6B9847E0E7D2B2052ACE
:101910003FF61AAFDFE802F0403A34282217037C82
:10192000002B65D1D0F8B4320DF106009B6A9847C0
:1019300002234370CBE7D0F8B032007C1B680DF176
:1019400006019847C3E7D0F8B0329B69002B3FF4FB
:10195000FBAE207C0DF106019847B8E7D0F8B03215
:101960005B69002BF5D1EFE6D0F8B0321B69002B94
:101970003FF4EAAE0DF1060190F89E029847A6E703
:10198000D0F8B032DB68002BE3D1DDE6D0F8B0321E
:101990009B68002BDDD1D7E6D0F8B0325B68002B16
:1019A000D7D1D1E6032B7FF4CFAE011D00F050F963
:1019B000D2E631B3416801293FF42CAFC9B2FFF739
:1019C00091FD297861602046FFF77EFD02287FF4B3
:1019D00021AFB9E600293FF41DAF01210323416087
:1019E00080F89C32FFF770FD02287FF413AFABE65E
:1019F000D0F8B4320DF10600DB6A98470223437039
:101A000065E7022380F89C324160FFF76BFD2046BA
:101A100000F04AF9A0E6012384F89C329CE600BF5E
:101A2000601A002038B50B7803F06002402A0D469A
:101A300004460AD05B0608D5802100F0FDFB00219A
:101A4000204600F0F9FB002038BD94F89C32013BA1
:101A5000022B11D82B79012B0ED8D4F8B432294699
:101A60009B6820469847EB88002BECD10028EAD1F0
:101A7000204600F019F9E6E78021204600F0DCFB63
:101A80000021204600F0D8FB002038BD38B50B7887
:101A90008A8803F06003202B04460CD0402B0AD028
:101AA00083B18021204600F0C7FB0021204600F0D2
:101AB000C3FB002038BDD4F8B43220469B68984759
:101AC000002038BD4B78012B5FFA82FC3CD0032B01
:101AD00029D0002BE5D190F89C32022B4FD0032B5C
:101AE000DFD10CF00F0303EB8303120600EB83033B
:101AF00054D4D3F85831002BD3D00CF07F031425E5
:101B000005FB030505F5AA7533B16146204600F0D3
:101B1000AFFB031E18BF01232B600222294620467B
:101B200000F096F8C5E790F89C32022B1CD0032BEE
:101B3000B7D14B88A3B91CF07F0F11D0CB887BB9EC
:101B4000614600F079FB0BE090F89C32022B0BD041
:101B5000032BA6D14B88002BABD11CF07F0F29D1D2
:101B6000204600F0A1F8A4E71CF07F0F99D0614651
:101B700000F062FB8021204600F05EFB99E71CF03C
:101B80007F0F8ED111064CBF00F1140100F5AA7130
:101B900000230B60022200F05BF88AE79B69002BB0
:101BA0003FF47FAF0CF07F035D1C05EB850500EB78
:101BB0008505A9E7614600F04DFBD1E70B7803707E
:101BC0004B784370CA788B7803EB022343804A79C1
:101BD0000B7903EB02238380CA798B7903EB022311
:101BE000C380704710B58021044600F025FB2046D5
:101BF0000021BDE8104000F01FBB00BF18B3037800
:101C000030B40BB30446C0F1010C04EB0C0314F820
:101C1000015FDBB2002DF8D101335B00DCB2138031
:101C200003230C704B7004785CB1022300255A1C0E
:101C3000D2B2CC548D5410F8014F0233DBB2002CD9
:101C4000F5D130BC7047704702242346E7E700BF58
:101C500008B513460A460221C0E90733C0F89412BA
:101C6000002100F023FB002008BD00BF08B513468B
:101C70000A46002100F01AFB002008BD08B51346F3
:101C80000A460321C0E95733C0F89412002100F03E
:101C90001BFB002008BD00BF08B513460A46002103
:101CA00000F012FB002008BD08B504220023C0F894
:101CB000942219461A4600F0F9FA002008BD00BF28
:101CC00008B505220023C0F8942219461A4600F0F0
:101CD000FBFA002008BD00BF10B596B034220021E9
:101CE00009A804F032F82021002301220DEB0100A5
:101CF000CDE90233CDE90433CDE9063308910E92E4
:101D0000FDF7BCFBC8B9104B9A6D42F480729A651E
:101D10009B6D9FED0B7B03F4807301934BF67F313A
:101D20002222202302A88DED027BCDE90512019C21
:101D30000793FEF765F816B010BD02F0CBFFE2E79F
:101D400000000000000000200010024008B5184903
:101D500018480122FFF794FB70B917491548FFF79F
:101D6000A5FB88B915491348FFF734FBA0B9114802
:101D7000FFF7A4FBB8B908BD02F0ACFF0E490D484F
:101D8000FFF794FB0028EDD002F0A4FF0B490948AF
:101D9000FFF720FB0028EAD002F09CFF0548FFF780
:101DA0008DFB0028E7D0BDE8084002F093BF00BFDC
:101DB000B0000020641A002048000020A00000208D
:101DC0000020704700207047F8B51C4D01232B7090
:101DD0000A689A4202D901782A2926D0184F194C4C
:101DE00023781344FF2B1A4628BFFF22D72B2270DB
:101DF00021D83B784BB1144911441448FFF7FAFA43
:101E00001248FFF723FB0020F8BD0F4B991811F87B
:101E1000010C0A28F1D100269E540B4801F09AFFCC
:101E200009493E7026702E70E7E74178044F752906
:101E300008BF3B70D3E7044BEDE700BF6A1F0020EB
:101E40006C1F00206B1F0020681D0020641A0020FA
:101E50001D4B1E491B681E4A1E48A1FB03135B0B4A
:101E6000013B9FED177B10B51360126800234FF004
:101E7000804442F20F7180ED047BC0E901230460CD
:101E8000C1608361FEF75AFB70B91248FEF7C8FBC8
:101E900088B9002210491148FFF7A4FA10490F48E9
:101EA000FFF7A8FA002010BD02F014FF0948FEF762
:101EB000B7FB0028EDD002F00DFFEAE7AFF300809A
:101EC0000000000000000000C40500205917B7D131
:101ED000701F0020281D0020681E0020641A0020AA
:101EE000681D0020074A0368934203D0064A9342C4
:101EF00006D070470549064A01230B7013707047DE
:101F000002F0ECBB0014004000040040681F0020F9
:101F1000691F0020124B1B780BB10120704730B5B0
:101F2000054683B00F480C46FFF784FA08B103B0AA
:101F300030BDB4F5807F2246294628BF4FF4807219
:101F40000948019204F013F8019A07490548FFF780
:101F500049FA044803B0BDE83040FFF751BA00BF6A
:101F60006A1F0020641A0020681E00201223014806
:101F70000B807047CC000020042301480B80704781
:101F8000E000002010B5044C04480A462146FFF743
:101F900035FE204610BD00BF741F0020766600206D
:101FA00010B5044C04480A462146FFF727FE204698
:101FB00010BD00BF741F00205766002010B5044CF0
:101FC00004480A462146FFF719FE204610BD00BF0F
:101FD000741F00203866002010B5044C04480A46DF
:101FE0002146FFF70BFE204610BD00BF741F0020E6
:101FF000146C010810B5044C04480A462146FFF74A
:10200000FDFD204610BD00BF741F0020206C01089C
:1020100030B51B4B026889B000249A42CDE90244D6
:10202000CDE90444069401D009B030BD154DEB6CE8
:1020300043F00103EB64EB6C03F0010300934FF4F6
:10204000C0520223CDE9022302A903234FF090409E
:10205000009A0593FCF7F8FBAB6D43F40003AB6506
:10206000AB6D03F400032246019306211420019B6B
:10207000FCF7B4F81420FCF7EFF809B030BD00BF4E
:10208000005C00400010024000F50C71D0F87002B6
:10209000FFF730BA00EB4113D0F87002D3F83C21BF
:1020A000FFF758BA00EB4113D0F87002DA6BFFF774
:1020B0008FBA00BF08B5D0F87002FFF72BFBBDE860
:1020C000084003F039BC00BF8368022B10B50446FA
:1020D00001D002F0FFFDD4F870020121FFF702FBEE
:1020E000D4F87002BDE81040FFF7D4BA10B504462A
:1020F000D0F87002FFF7FAFAA36923B1024A136914
:1021000043F00603136110BD00ED00E0836910B5D4
:1021100004462BB9D4F87002BDE81040FFF7F0BABE
:10212000074A136923F00603136102F065FDFFF708
:10213000D3FDD4F87002BDE81040FFF7E1BA00BF4C
:1021400000ED00E0000000009FED1F7B224B234AC2
:1021500010B583ED047B9FED1E7BC0F8C0320824D0
:102160000221C3F870021A6083ED067B0022184634
:10217000C3E901411A62FCF781FC08BB0022114649
:1021800040231548FDF7D0F8802319460022124855
:10219000FDF7CAF8C023002281210F48FDF7C4F8DB
:1021A0004FF48873002202210B48FDF7BDF84FF46D
:1021B0008073002282210848FDF7B6F8002010BD88
:1021C00002F088FDDAE700BF020000000000000016
:1021D0000000000000000000D81F0020005C00404C
:1021E00008B5D0F8C002FCF7B5FC032896BF024B37
:1021F0000220185C08BD00BF306C0108944608B589
:102200001A46D0F8C0026346FCF788FF032896BF41
:10221000014B0220185C08BD306C010808B5D0F8ED
:10222000C002FCF7B1FF032896BF024B0220185CE6
:1022300008BD00BF306C010808B5D0F8C002FDF73A
:1022400005F8032896BF024B0220185C08BD00BFAA
:10225000306C010808B5D0F8C002FDF731F803284A
:1022600096BF024B0220185C08BD00BF306C01080D
:102270000A06D0F8C03204D403EB411393F82A01C4
:10228000704701F07F0103EB411393F82A00704778
:1022900008B5D0F8C002FCF72DFF032896BF024B0B
:1022A0000220185C08BD00BF306C010808B5D0F8EA
:1022B000C002FCF7B3FF032896BF024B0220185C54
:1022C00008BD00BF306C010808B5D0F8C002FCF7AB
:1022D00085FF032896BF024B0220185C08BD00BF93
